{
  "_format": "hh-sol-artifact-1",
  "contractName": "Manager",
  "sourceName": "contracts/base/Manager.sol",
  "abi": [
    {
      "inputs": [
        {
          "internalType": "address",
          "name": "_governanceCouncil",
          "type": "address"
        },
        {
          "internalType": "address",
          "name": "_integrationCouncil",
          "type": "address"
        },
        {
          "internalType": "address",
          "name": "_nonProfitCouncil",
          "type": "address"
        }
      ],
      "stateMutability": "nonpayable",
      "type": "constructor"
    },
    {
      "anonymous": false,
      "inputs": [
        {
          "indexed": false,
          "internalType": "address",
          "name": "pool",
          "type": "address"
        },
        {
          "indexed": false,
          "internalType": "bytes32",
          "name": "user",
          "type": "bytes32"
        },
        {
          "indexed": false,
          "internalType": "address",
          "name": "integration",
          "type": "address"
        },
        {
          "indexed": false,
          "internalType": "address",
          "name": "nonProfit",
          "type": "address"
        },
        {
          "indexed": false,
          "internalType": "uint256",
          "name": "amount",
          "type": "uint256"
        }
      ],
      "name": "DonationAdded",
      "type": "event"
    },
    {
      "anonymous": false,
      "inputs": [
        {
          "indexed": false,
          "internalType": "address",
          "name": "governanceCouncil",
          "type": "address"
        }
      ],
      "name": "GovernanceCouncilChanged",
      "type": "event"
    },
    {
      "anonymous": false,
      "inputs": [
        {
          "indexed": false,
          "internalType": "address",
          "name": "integration",
          "type": "address"
        },
        {
          "indexed": false,
          "internalType": "uint256",
          "name": "amount",
          "type": "uint256"
        }
      ],
      "name": "IntegrationBalanceAdded",
      "type": "event"
    },
    {
      "anonymous": false,
      "inputs": [
        {
          "indexed": false,
          "internalType": "address",
          "name": "integration",
          "type": "address"
        },
        {
          "indexed": false,
          "internalType": "uint256",
          "name": "amount",
          "type": "uint256"
        }
      ],
      "name": "IntegrationBalanceRemoved",
      "type": "event"
    },
    {
      "anonymous": false,
      "inputs": [
        {
          "indexed": false,
          "internalType": "address",
          "name": "integrationCouncil",
          "type": "address"
        }
      ],
      "name": "IntegrationCouncilChanged",
      "type": "event"
    },
    {
      "anonymous": false,
      "inputs": [
        {
          "indexed": false,
          "internalType": "address",
          "name": "pool",
          "type": "address"
        },
        {
          "indexed": false,
          "internalType": "address",
          "name": "nonProfit",
          "type": "address"
        }
      ],
      "name": "NonProfitAdded",
      "type": "event"
    },
    {
      "anonymous": false,
      "inputs": [
        {
          "indexed": false,
          "internalType": "address",
          "name": "nonProfitCouncil",
          "type": "address"
        }
      ],
      "name": "NonProfitCouncilChanged",
      "type": "event"
    },
    {
      "anonymous": false,
      "inputs": [
        {
          "indexed": false,
          "internalType": "address",
          "name": "pool",
          "type": "address"
        },
        {
          "indexed": false,
          "internalType": "address",
          "name": "nonProfit",
          "type": "address"
        }
      ],
      "name": "NonProfitRemoved",
      "type": "event"
    },
    {
      "anonymous": false,
      "inputs": [
        {
          "indexed": false,
          "internalType": "address",
          "name": "promoter",
          "type": "address"
        },
        {
          "indexed": false,
          "internalType": "address",
          "name": "pool",
          "type": "address"
        },
        {
          "indexed": false,
          "internalType": "uint256",
          "name": "amount",
          "type": "uint256"
        }
      ],
      "name": "PoolBalanceIncreased",
      "type": "event"
    },
    {
      "anonymous": false,
      "inputs": [
        {
          "indexed": false,
          "internalType": "address",
          "name": "pool",
          "type": "address"
        },
        {
          "indexed": false,
          "internalType": "address",
          "name": "wallet",
          "type": "address"
        }
      ],
      "name": "PoolBalanceTransfered",
      "type": "event"
    },
    {
      "anonymous": false,
      "inputs": [
        {
          "indexed": false,
          "internalType": "address",
          "name": "pool",
          "type": "address"
        },
        {
          "indexed": false,
          "internalType": "address",
          "name": "token",
          "type": "address"
        }
      ],
      "name": "PoolCreated",
      "type": "event"
    },
    {
      "inputs": [
        {
          "internalType": "address",
          "name": "_integration",
          "type": "address"
        },
        {
          "internalType": "uint256",
          "name": "_amount",
          "type": "uint256"
        }
      ],
      "name": "addIntegrationBalance",
      "outputs": [],
      "stateMutability": "nonpayable",
      "type": "function"
    },
    {
      "inputs": [
        {
          "internalType": "address",
          "name": "_pool",
          "type": "address"
        },
        {
          "internalType": "address",
          "name": "_nonProfit",
          "type": "address"
        }
      ],
      "name": "addNonProfitToWhitelist",
      "outputs": [],
      "stateMutability": "nonpayable",
      "type": "function"
    },
    {
      "inputs": [
        {
          "internalType": "address",
          "name": "_pool",
          "type": "address"
        },
        {
          "internalType": "uint256",
          "name": "_amount",
          "type": "uint256"
        }
      ],
      "name": "addPoolBalance",
      "outputs": [],
      "stateMutability": "nonpayable",
      "type": "function"
    },
    {
      "inputs": [
        {
          "internalType": "address",
          "name": "_token",
          "type": "address"
        }
      ],
      "name": "createPool",
      "outputs": [],
      "stateMutability": "nonpayable",
      "type": "function"
    },
    {
      "inputs": [
        {
          "internalType": "address",
          "name": "_pool",
          "type": "address"
        },
        {
          "internalType": "address",
          "name": "_nonProfit",
          "type": "address"
        },
        {
          "internalType": "bytes32",
          "name": "_user",
          "type": "bytes32"
        },
        {
          "internalType": "uint256",
          "name": "_amount",
          "type": "uint256"
        }
      ],
      "name": "donateThroughIntegration",
      "outputs": [],
      "stateMutability": "nonpayable",
      "type": "function"
    },
    {
      "inputs": [
        {
          "internalType": "uint256",
          "name": "_index",
          "type": "uint256"
        },
        {
          "internalType": "uint256",
          "name": "_length",
          "type": "uint256"
        }
      ],
      "name": "fetchPools",
      "outputs": [
        {
          "internalType": "address[]",
          "name": "_pools",
          "type": "address[]"
        },
        {
          "internalType": "uint256",
          "name": "_newIndex",
          "type": "uint256"
        }
      ],
      "stateMutability": "view",
      "type": "function"
    },
    {
      "inputs": [],
      "name": "governanceCouncil",
      "outputs": [
        {
          "internalType": "address",
          "name": "",
          "type": "address"
        }
      ],
      "stateMutability": "view",
      "type": "function"
    },
    {
      "inputs": [],
      "name": "integrationCouncil",
      "outputs": [
        {
          "internalType": "address",
          "name": "",
          "type": "address"
        }
      ],
      "stateMutability": "view",
      "type": "function"
    },
    {
      "inputs": [
        {
          "internalType": "address",
          "name": "",
          "type": "address"
        }
      ],
      "name": "integrations",
      "outputs": [
        {
          "internalType": "uint256",
          "name": "",
          "type": "uint256"
        }
      ],
      "stateMutability": "view",
      "type": "function"
    },
    {
      "inputs": [],
      "name": "nonProfitCouncil",
      "outputs": [
        {
          "internalType": "address",
          "name": "",
          "type": "address"
        }
      ],
      "stateMutability": "view",
      "type": "function"
    },
    {
      "inputs": [
        {
          "internalType": "uint256",
          "name": "",
          "type": "uint256"
        }
      ],
      "name": "pools",
      "outputs": [
        {
          "internalType": "address",
          "name": "",
          "type": "address"
        }
      ],
      "stateMutability": "view",
      "type": "function"
    },
    {
      "inputs": [
        {
          "internalType": "address",
          "name": "_integration",
          "type": "address"
        },
        {
          "internalType": "uint256",
          "name": "_amount",
          "type": "uint256"
        }
      ],
      "name": "removeIntegrationBalance",
      "outputs": [],
      "stateMutability": "nonpayable",
      "type": "function"
    },
    {
      "inputs": [
        {
          "internalType": "address",
          "name": "_pool",
          "type": "address"
        },
        {
          "internalType": "address",
          "name": "_nonProfit",
          "type": "address"
        }
      ],
      "name": "removeNonProfitFromWhitelist",
      "outputs": [],
      "stateMutability": "nonpayable",
      "type": "function"
    },
    {
      "inputs": [
        {
          "internalType": "address",
          "name": "_governanceCouncil",
          "type": "address"
        }
      ],
      "name": "setGovernanceCouncil",
      "outputs": [],
      "stateMutability": "nonpayable",
      "type": "function"
    },
    {
      "inputs": [
        {
          "internalType": "address",
          "name": "_integrationCouncil",
          "type": "address"
        }
      ],
      "name": "setIntegrationCouncil",
      "outputs": [],
      "stateMutability": "nonpayable",
      "type": "function"
    },
    {
      "inputs": [
        {
          "internalType": "address",
          "name": "_nonProfitCouncil",
          "type": "address"
        }
      ],
      "name": "setNonProfitCouncil",
      "outputs": [],
      "stateMutability": "nonpayable",
      "type": "function"
    },
    {
      "inputs": [
        {
          "internalType": "address",
          "name": "_pool",
          "type": "address"
        },
        {
          "internalType": "address",
          "name": "_wallet",
          "type": "address"
        }
      ],
      "name": "transferPoolBalance",
      "outputs": [],
      "stateMutability": "nonpayable",
      "type": "function"
    }
  ],
  "bytecode": "0x60806040523480156200001157600080fd5b5060405162003bb438038062003bb483398181016040528101906200003791906200016c565b82600260006101000a81548173ffffffffffffffffffffffffffffffffffffffff021916908373ffffffffffffffffffffffffffffffffffffffff160217905550816000806101000a81548173ffffffffffffffffffffffffffffffffffffffff021916908373ffffffffffffffffffffffffffffffffffffffff16021790555080600160006101000a81548173ffffffffffffffffffffffffffffffffffffffff021916908373ffffffffffffffffffffffffffffffffffffffff160217905550505050620001c8565b600080fd5b600073ffffffffffffffffffffffffffffffffffffffff82169050919050565b6000620001348262000107565b9050919050565b620001468162000127565b81146200015257600080fd5b50565b60008151905062000166816200013b565b92915050565b60008060006060848603121562000188576200018762000102565b5b6000620001988682870162000155565b9350506020620001ab8682870162000155565b9250506040620001be8682870162000155565b9150509250925092565b6139dc80620001d86000396000f3fe60806040523480156200001157600080fd5b5060043610620001245760003560e01c806373da40c711620000b1578063c281605d116200007b578063c281605d14620002f2578063cb688b7c1462000312578063deb1631f1462000332578063eba97eaa1462000352578063f868858114620003725762000124565b806373da40c7146200025a5780638f0e54d8146200027c5780639049f9d2146200029c578063ac4afa3814620002bc5762000124565b806334aca83e11620000f357806334aca83e14620001c357806354578ae214620001fa57806356c5c218146200021a57806356dd3a16146200023a5762000124565b806305e647941462000129578063132fdb0b146200015f57806317698eee14620001815780631adef45d14620001a3575b600080fd5b6200014760048036038101906200014191906200189e565b62000392565b604051620001569190620018eb565b60405180910390f35b62000169620003aa565b60405162000178919062001919565b60405180910390f35b6200018b620003ce565b6040516200019a919062001919565b60405180910390f35b620001c16004803603810190620001bb91906200189e565b620003f4565b005b620001e16004803603810190620001db919062001967565b62000526565b604051620001f192919062001a7c565b60405180910390f35b62000218600480360381019062000212919062001ab0565b62000686565b005b62000238600480360381019062000232919062001b32565b620007cd565b005b6200025860048036038101906200025291906200189e565b620009b2565b005b6200026462000ae1565b60405162000273919062001919565b60405180910390f35b6200029a600480360381019062000294919062001ba4565b62000b07565b005b620002ba6004803603810190620002b491906200189e565b62000c3a565b005b620002da6004803603810190620002d4919062001beb565b62000dae565b604051620002e9919062001919565b60405180910390f35b6200031060048036038101906200030a919062001ba4565b62000dee565b005b6200033060048036038101906200032a919062001ab0565b62000fe1565b005b6200035060048036038101906200034a919062001ba4565b62001128565b005b6200037060048036038101906200036a91906200189e565b62001296565b005b6200039060048036038101906200038a919062001ab0565b620013c8565b005b60036020528060005260406000206000915090505481565b60008054906101000a900473ffffffffffffffffffffffffffffffffffffffff1681565b600260009054906101000a900473ffffffffffffffffffffffffffffffffffffffff1681565b600260009054906101000a900473ffffffffffffffffffffffffffffffffffffffff1673ffffffffffffffffffffffffffffffffffffffff163373ffffffffffffffffffffffffffffffffffffffff161462000487576040517f08c379a00000000000000000000000000000000000000000000000000000000081526004016200047e9062001ca4565b60405180910390fd5b80600160006101000a81548173ffffffffffffffffffffffffffffffffffffffff021916908373ffffffffffffffffffffffffffffffffffffffff1602179055507f025ddf3311f56ecb14f15fc5c828d3f4dce0ab6c9b6a3391ccf46fb953075049600160009054906101000a900473ffffffffffffffffffffffffffffffffffffffff166040516200051b919062001919565b60405180910390a150565b60606000836004805490506200053d919062001cf5565b8311156200055b578360048054905062000558919062001cf5565b92505b8267ffffffffffffffff81111562000578576200057762001d30565b5b604051908082528060200260200182016040528015620005a75781602001602082028036833780820191505090505b50915060005b838110156200066b5760048186620005c6919062001d5f565b81548110620005da57620005d962001dbc565b5b9060005260206000200160009054906101000a900473ffffffffffffffffffffffffffffffffffffffff168382815181106200061b576200061a62001dbc565b5b602002602001019073ffffffffffffffffffffffffffffffffffffffff16908173ffffffffffffffffffffffffffffffffffffffff16815250508080620006629062001deb565b915050620005ad565b508183856200067b919062001d5f565b915091509250929050565b600260009054906101000a900473ffffffffffffffffffffffffffffffffffffffff1673ffffffffffffffffffffffffffffffffffffffff163373ffffffffffffffffffffffffffffffffffffffff161462000719576040517f08c379a0000000000000000000000000000000000000000000000000000000008152600401620007109062001ca4565b60405180910390fd5b60008290508073ffffffffffffffffffffffffffffffffffffffff166363b6b31f836040518263ffffffff1660e01b815260040162000759919062001919565b600060405180830381600087803b1580156200077457600080fd5b505af115801562000789573d6000803e3d6000fd5b505050507fdb72e41f6fd4c6fd7a5be5ef58e126fea8e3ae75a3d6e32e4f8517449ad23c728383604051620007c092919062001e38565b60405180910390a1505050565b80600360003373ffffffffffffffffffffffffffffffffffffffff1673ffffffffffffffffffffffffffffffffffffffff16815260200190815260200160002054101562000852576040517f08c379a0000000000000000000000000000000000000000000000000000000008152600401620008499062001eb5565b60405180910390fd5b6000811162000898576040517f08c379a00000000000000000000000000000000000000000000000000000000081526004016200088f9062001f27565b60405180910390fd5b80600360003373ffffffffffffffffffffffffffffffffffffffff1673ffffffffffffffffffffffffffffffffffffffff1681526020019081526020016000206000828254620008e9919062001cf5565b9250508190555060008490508073ffffffffffffffffffffffffffffffffffffffff166356c5c218853386866040518563ffffffff1660e01b815260040162000936949392919062001f5a565b600060405180830381600087803b1580156200095157600080fd5b505af115801562000966573d6000803e3d6000fd5b505050507fef282a5a63fd61c470f8472eb984b2e735220c381ff5cbccfa00a691dc7d1b818584338786604051620009a395949392919062001fa7565b60405180910390a15050505050565b600260009054906101000a900473ffffffffffffffffffffffffffffffffffffffff1673ffffffffffffffffffffffffffffffffffffffff163373ffffffffffffffffffffffffffffffffffffffff161462000a45576040517f08c379a000000000000000000000000000000000000000000000000000000000815260040162000a3c9062001ca4565b60405180910390fd5b806000806101000a81548173ffffffffffffffffffffffffffffffffffffffff021916908373ffffffffffffffffffffffffffffffffffffffff1602179055507f080c9357b0cd10dcf418047ae7b7bf2460dfb605c7dbf335015ba38e181197fb60008054906101000a900473ffffffffffffffffffffffffffffffffffffffff1660405162000ad6919062001919565b60405180910390a150565b600160009054906101000a900473ffffffffffffffffffffffffffffffffffffffff1681565b6000811162000b4d576040517f08c379a000000000000000000000000000000000000000000000000000000000815260040162000b449062001f27565b60405180910390fd5b600082905060008173ffffffffffffffffffffffffffffffffffffffff1663fc0c546a6040518163ffffffff1660e01b8152600401602060405180830381865afa15801562000ba0573d6000803e3d6000fd5b505050506040513d601f19601f8201168201806040525081019062000bc6919062002049565b905062000bf73385858473ffffffffffffffffffffffffffffffffffffffff166200150f909392919063ffffffff16565b7f68ff2aa0443744f41b90cd3bdb18921eaf2afaa113bd0d1320b3c21a6916c74c33858560405162000c2c939291906200207b565b60405180910390a150505050565b600160009054906101000a900473ffffffffffffffffffffffffffffffffffffffff1673ffffffffffffffffffffffffffffffffffffffff163373ffffffffffffffffffffffffffffffffffffffff161462000ccd576040517f08c379a000000000000000000000000000000000000000000000000000000000815260040162000cc4906200212e565b60405180910390fd5b6000813060405162000cdf9062001826565b62000cec92919062001e38565b604051809103906000f08015801562000d09573d6000803e3d6000fd5b5090506004819080600181540180825580915050600190039060005260206000200160009091909190916101000a81548173ffffffffffffffffffffffffffffffffffffffff021916908373ffffffffffffffffffffffffffffffffffffffff1602179055507f4f2ce4e40f623ca765fc0167a25cb7842ceaafb8d82d3dec26ca0d0e0d2d4896818360405162000da292919062001e38565b60405180910390a15050565b6004818154811062000dbf57600080fd5b906000526020600020016000915054906101000a900473ffffffffffffffffffffffffffffffffffffffff1681565b60008054906101000a900473ffffffffffffffffffffffffffffffffffffffff1673ffffffffffffffffffffffffffffffffffffffff163373ffffffffffffffffffffffffffffffffffffffff161462000e7f576040517f08c379a000000000000000000000000000000000000000000000000000000000815260040162000e7690620021c6565b60405180910390fd5b80600360008473ffffffffffffffffffffffffffffffffffffffff1673ffffffffffffffffffffffffffffffffffffffff16815260200190815260200160002054101562000f04576040517f08c379a000000000000000000000000000000000000000000000000000000000815260040162000efb906200225e565b60405180910390fd5b6000811162000f4a576040517f08c379a000000000000000000000000000000000000000000000000000000000815260040162000f419062001f27565b60405180910390fd5b80600360008473ffffffffffffffffffffffffffffffffffffffff1673ffffffffffffffffffffffffffffffffffffffff168152602001908152602001600020600082825462000f9b919062001cf5565b925050819055507f9bf19fcaed3216b249d549bbd10270c5ccb0e8af4b6b33387f21aa9969e56aac828260405162000fd592919062002280565b60405180910390a15050565b600160009054906101000a900473ffffffffffffffffffffffffffffffffffffffff1673ffffffffffffffffffffffffffffffffffffffff163373ffffffffffffffffffffffffffffffffffffffff161462001074576040517f08c379a00000000000000000000000000000000000000000000000000000000081526004016200106b906200212e565b60405180910390fd5b60008290508073ffffffffffffffffffffffffffffffffffffffff166350237c89836040518263ffffffff1660e01b8152600401620010b4919062001919565b600060405180830381600087803b158015620010cf57600080fd5b505af1158015620010e4573d6000803e3d6000fd5b505050507fa012627ff55158eeb44861ec42000c58102d2c97c8169fe489ead1b81d20f55883836040516200111b92919062001e38565b60405180910390a1505050565b60008054906101000a900473ffffffffffffffffffffffffffffffffffffffff1673ffffffffffffffffffffffffffffffffffffffff163373ffffffffffffffffffffffffffffffffffffffff1614620011b9576040517f08c379a0000000000000000000000000000000000000000000000000000000008152600401620011b090620021c6565b60405180910390fd5b60008111620011ff576040517f08c379a0000000000000000000000000000000000000000000000000000000008152600401620011f69062001f27565b60405180910390fd5b80600360008473ffffffffffffffffffffffffffffffffffffffff1673ffffffffffffffffffffffffffffffffffffffff168152602001908152602001600020600082825462001250919062001d5f565b925050819055507f777ef5eaabef3886e23f4fb05ad8db9f4b8d00a08fddf565c4fee2e02fb9fc6182826040516200128a92919062002280565b60405180910390a15050565b600260009054906101000a900473ffffffffffffffffffffffffffffffffffffffff1673ffffffffffffffffffffffffffffffffffffffff163373ffffffffffffffffffffffffffffffffffffffff161462001329576040517f08c379a0000000000000000000000000000000000000000000000000000000008152600401620013209062001ca4565b60405180910390fd5b80600260006101000a81548173ffffffffffffffffffffffffffffffffffffffff021916908373ffffffffffffffffffffffffffffffffffffffff1602179055507f4b85d278d7fab37dd38da666a3f2e8a3a8191b57d24327bffa8e66a60f698a69600260009054906101000a900473ffffffffffffffffffffffffffffffffffffffff16604051620013bd919062001919565b60405180910390a150565b600160009054906101000a900473ffffffffffffffffffffffffffffffffffffffff1673ffffffffffffffffffffffffffffffffffffffff163373ffffffffffffffffffffffffffffffffffffffff16146200145b576040517f08c379a000000000000000000000000000000000000000000000000000000000815260040162001452906200212e565b60405180910390fd5b60008290508073ffffffffffffffffffffffffffffffffffffffff16632e11f00a836040518263ffffffff1660e01b81526004016200149b919062001919565b600060405180830381600087803b158015620014b657600080fd5b505af1158015620014cb573d6000803e3d6000fd5b505050507f446f98e2ea04ca52a95af1804f700682f720bae1def76ab4e1b4793fb517909c83836040516200150292919062001e38565b60405180910390a1505050565b62001596846323b872dd60e01b85858560405160240162001533939291906200207b565b604051602081830303815290604052907bffffffffffffffffffffffffffffffffffffffffffffffffffffffff19166020820180517bffffffffffffffffffffffffffffffffffffffffffffffffffffffff83818316178352505050506200159c565b50505050565b600062001600826040518060400160405280602081526020017f5361666545524332303a206c6f772d6c6576656c2063616c6c206661696c65648152508573ffffffffffffffffffffffffffffffffffffffff166200166b9092919063ffffffff16565b9050600081511115620016665780806020019051810190620016239190620022ea565b62001665576040517f08c379a00000000000000000000000000000000000000000000000000000000081526004016200165c9062002392565b60405180910390fd5b5b505050565b60606200167c848460008562001685565b90509392505050565b606082471015620016cd576040517f08c379a0000000000000000000000000000000000000000000000000000000008152600401620016c4906200242a565b60405180910390fd5b620016d885620017a7565b6200171a576040517f08c379a000000000000000000000000000000000000000000000000000000000815260040162001711906200249c565b60405180910390fd5b6000808673ffffffffffffffffffffffffffffffffffffffff16858760405162001745919062002541565b60006040518083038185875af1925050503d806000811462001784576040519150601f19603f3d011682016040523d82523d6000602084013e62001789565b606091505b50915091506200179b828286620017ba565b92505050949350505050565b600080823b905060008111915050919050565b60608315620017cc578290506200181f565b600083511115620017e05782518084602001fd5b816040517f08c379a0000000000000000000000000000000000000000000000000000000008152600401620018169190620025b7565b60405180910390fd5b9392505050565b6113cb80620025dc83390190565b600080fd5b600073ffffffffffffffffffffffffffffffffffffffff82169050919050565b6000620018668262001839565b9050919050565b620018788162001859565b81146200188457600080fd5b50565b60008135905062001898816200186d565b92915050565b600060208284031215620018b757620018b662001834565b5b6000620018c78482850162001887565b91505092915050565b6000819050919050565b620018e581620018d0565b82525050565b6000602082019050620019026000830184620018da565b92915050565b620019138162001859565b82525050565b600060208201905062001930600083018462001908565b92915050565b6200194181620018d0565b81146200194d57600080fd5b50565b600081359050620019618162001936565b92915050565b6000806040838503121562001981576200198062001834565b5b6000620019918582860162001950565b9250506020620019a48582860162001950565b9150509250929050565b600081519050919050565b600082825260208201905092915050565b6000819050602082019050919050565b620019e58162001859565b82525050565b6000620019f98383620019da565b60208301905092915050565b6000602082019050919050565b600062001a1f82620019ae565b62001a2b8185620019b9565b935062001a3883620019ca565b8060005b8381101562001a6f57815162001a538882620019eb565b975062001a608362001a05565b92505060018101905062001a3c565b5085935050505092915050565b6000604082019050818103600083015262001a98818562001a12565b905062001aa96020830184620018da565b9392505050565b6000806040838503121562001aca5762001ac962001834565b5b600062001ada8582860162001887565b925050602062001aed8582860162001887565b9150509250929050565b6000819050919050565b62001b0c8162001af7565b811462001b1857600080fd5b50565b60008135905062001b2c8162001b01565b92915050565b6000806000806080858703121562001b4f5762001b4e62001834565b5b600062001b5f8782880162001887565b945050602062001b728782880162001887565b935050604062001b858782880162001b1b565b925050606062001b988782880162001950565b91505092959194509250565b6000806040838503121562001bbe5762001bbd62001834565b5b600062001bce8582860162001887565b925050602062001be18582860162001950565b9150509250929050565b60006020828403121562001c045762001c0362001834565b5b600062001c148482850162001950565b91505092915050565b600082825260208201905092915050565b7f596f7520617265206e6f742074686520676f7665726e616e636520636f756e6360008201527f696c000000000000000000000000000000000000000000000000000000000000602082015250565b600062001c8c60228362001c1d565b915062001c998262001c2e565b604082019050919050565b6000602082019050818103600083015262001cbf8162001c7d565b9050919050565b7f4e487b7100000000000000000000000000000000000000000000000000000000600052601160045260246000fd5b600062001d0282620018d0565b915062001d0f83620018d0565b92508282101562001d255762001d2462001cc6565b5b828203905092915050565b7f4e487b7100000000000000000000000000000000000000000000000000000000600052604160045260246000fd5b600062001d6c82620018d0565b915062001d7983620018d0565b9250827fffffffffffffffffffffffffffffffffffffffffffffffffffffffffffffffff0382111562001db15762001db062001cc6565b5b828201905092915050565b7f4e487b7100000000000000000000000000000000000000000000000000000000600052603260045260246000fd5b600062001df882620018d0565b91507fffffffffffffffffffffffffffffffffffffffffffffffffffffffffffffffff820362001e2d5762001e2c62001cc6565b5b600182019050919050565b600060408201905062001e4f600083018562001908565b62001e5e602083018462001908565b9392505050565b7f42616c616e6365206d7573742067726561746572207468616e20616d6f756e74600082015250565b600062001e9d60208362001c1d565b915062001eaa8262001e65565b602082019050919050565b6000602082019050818103600083015262001ed08162001e8e565b9050919050565b7f416d6f756e74206d7573742062652067726561746572207468616e2030000000600082015250565b600062001f0f601d8362001c1d565b915062001f1c8262001ed7565b602082019050919050565b6000602082019050818103600083015262001f428162001f00565b9050919050565b62001f548162001af7565b82525050565b600060808201905062001f71600083018762001908565b62001f80602083018662001908565b62001f8f604083018562001f49565b62001f9e6060830184620018da565b95945050505050565b600060a08201905062001fbe600083018862001908565b62001fcd602083018762001f49565b62001fdc604083018662001908565b62001feb606083018562001908565b62001ffa6080830184620018da565b9695505050505050565b6000620020118262001859565b9050919050565b620020238162002004565b81146200202f57600080fd5b50565b600081519050620020438162002018565b92915050565b60006020828403121562002062576200206162001834565b5b6000620020728482850162002032565b91505092915050565b600060608201905062002092600083018662001908565b620020a1602083018562001908565b620020b06040830184620018da565b949350505050565b7f596f7520617265206e6f7420746865206e6f6e2070726f66697420636f756e6360008201527f696c000000000000000000000000000000000000000000000000000000000000602082015250565b60006200211660228362001c1d565b91506200212382620020b8565b604082019050919050565b60006020820190508181036000830152620021498162002107565b9050919050565b7f596f7520617265206e6f742074686520696e746567726174696f6e20636f756e60008201527f63696c0000000000000000000000000000000000000000000000000000000000602082015250565b6000620021ae60238362001c1d565b9150620021bb8262002150565b604082019050919050565b60006020820190508181036000830152620021e1816200219f565b9050919050565b7f42616c616e6365206d7573742062652067726561746572207468616e20616d6f60008201527f756e740000000000000000000000000000000000000000000000000000000000602082015250565b60006200224660238362001c1d565b91506200225382620021e8565b604082019050919050565b60006020820190508181036000830152620022798162002237565b9050919050565b600060408201905062002297600083018562001908565b620022a66020830184620018da565b9392505050565b60008115159050919050565b620022c481620022ad565b8114620022d057600080fd5b50565b600081519050620022e481620022b9565b92915050565b60006020828403121562002303576200230262001834565b5b60006200231384828501620022d3565b91505092915050565b7f5361666545524332303a204552433230206f7065726174696f6e20646964206e60008201527f6f74207375636365656400000000000000000000000000000000000000000000602082015250565b60006200237a602a8362001c1d565b915062002387826200231c565b604082019050919050565b60006020820190508181036000830152620023ad816200236b565b9050919050565b7f416464726573733a20696e73756666696369656e742062616c616e636520666f60008201527f722063616c6c0000000000000000000000000000000000000000000000000000602082015250565b60006200241260268362001c1d565b91506200241f82620023b4565b604082019050919050565b60006020820190508181036000830152620024458162002403565b9050919050565b7f416464726573733a2063616c6c20746f206e6f6e2d636f6e7472616374000000600082015250565b600062002484601d8362001c1d565b915062002491826200244c565b602082019050919050565b60006020820190508181036000830152620024b78162002475565b9050919050565b600081519050919050565b600081905092915050565b60005b83811015620024f4578082015181840152602081019050620024d7565b8381111562002504576000848401525b50505050565b60006200251782620024be565b620025238185620024c9565b935062002535818560208601620024d4565b80840191505092915050565b60006200254f82846200250a565b915081905092915050565b600081519050919050565b6000601f19601f8301169050919050565b600062002583826200255a565b6200258f818562001c1d565b9350620025a1818560208601620024d4565b620025ac8162002565565b840191505092915050565b60006020820190508181036000830152620025d3818462002576565b90509291505056fe60c06040523480156200001157600080fd5b50604051620013cb380380620013cb833981810160405281019062000037919062000111565b8173ffffffffffffffffffffffffffffffffffffffff1660808173ffffffffffffffffffffffffffffffffffffffff16815250508073ffffffffffffffffffffffffffffffffffffffff1660a08173ffffffffffffffffffffffffffffffffffffffff1681525050505062000158565b600080fd5b600073ffffffffffffffffffffffffffffffffffffffff82169050919050565b6000620000d982620000ac565b9050919050565b620000eb81620000cc565b8114620000f757600080fd5b50565b6000815190506200010b81620000e0565b92915050565b600080604083850312156200012b576200012a620000a7565b5b60006200013b85828601620000fa565b92505060206200014e85828601620000fa565b9150509250929050565b60805160a05161121c620001af600039600081816101600152818161027f015281816102a3015281816103c201526105ac0152600081816105230152818161063c015281816106dd0152610780015261121c6000f3fe608060405234801561001057600080fd5b506004361061007d5760003560e01c806356c5c2181161005b57806356c5c218146100d857806363b6b31f146100f45780637aea595614610110578063fc0c546a146101405761007d565b80632e11f00a14610082578063481c6a751461009e57806350237c89146100bc575b600080fd5b61009c60048036038101906100979190610af8565b61015e565b005b6100a661027d565b6040516100b39190610b34565b60405180910390f35b6100d660048036038101906100d19190610af8565b6102a1565b005b6100f260048036038101906100ed9190610bbb565b6103c0565b005b61010e60048036038101906101099190610af8565b6105aa565b005b61012a60048036038101906101259190610af8565b61075e565b6040516101379190610c3d565b60405180910390f35b61014861077e565b6040516101559190610cb7565b60405180910390f35b7f000000000000000000000000000000000000000000000000000000000000000073ffffffffffffffffffffffffffffffffffffffff163373ffffffffffffffffffffffffffffffffffffffff16146101ec576040517f08c379a00000000000000000000000000000000000000000000000000000000081526004016101e390610d2f565b60405180910390fd5b60016000808373ffffffffffffffffffffffffffffffffffffffff1673ffffffffffffffffffffffffffffffffffffffff16815260200190815260200160002060006101000a81548160ff0219169083151502179055507f48cd054a0d5f7a715ef556531456f832fa4713887fd9619b1994499164bfdb34816040516102729190610b34565b60405180910390a150565b7f000000000000000000000000000000000000000000000000000000000000000081565b7f000000000000000000000000000000000000000000000000000000000000000073ffffffffffffffffffffffffffffffffffffffff163373ffffffffffffffffffffffffffffffffffffffff161461032f576040517f08c379a000000000000000000000000000000000000000000000000000000000815260040161032690610d2f565b60405180910390fd5b60008060008373ffffffffffffffffffffffffffffffffffffffff1673ffffffffffffffffffffffffffffffffffffffff16815260200190815260200160002060006101000a81548160ff0219169083151502179055507ff4c0882c02504b57aef9b59434f24674dca5b42da5bc5a3da8782b4ec472f264816040516103b59190610b34565b60405180910390a150565b7f000000000000000000000000000000000000000000000000000000000000000073ffffffffffffffffffffffffffffffffffffffff163373ffffffffffffffffffffffffffffffffffffffff161461044e576040517f08c379a000000000000000000000000000000000000000000000000000000000815260040161044590610d2f565b60405180910390fd5b6000808573ffffffffffffffffffffffffffffffffffffffff1673ffffffffffffffffffffffffffffffffffffffff16815260200190815260200160002060009054906101000a900460ff166104d9576040517f08c379a00000000000000000000000000000000000000000000000000000000081526004016104d090610d9b565b60405180910390fd5b6000811161051c576040517f08c379a000000000000000000000000000000000000000000000000000000000815260040161051390610e07565b60405180910390fd5b61056784827f000000000000000000000000000000000000000000000000000000000000000073ffffffffffffffffffffffffffffffffffffffff166107a29092919063ffffffff16565b7f03648ca2afaaff870f2349ab3ff3431e0643787a1998d322afd18ed2aa9a863c8284868460405161059c9493929190610e45565b60405180910390a150505050565b7f000000000000000000000000000000000000000000000000000000000000000073ffffffffffffffffffffffffffffffffffffffff163373ffffffffffffffffffffffffffffffffffffffff1614610638576040517f08c379a000000000000000000000000000000000000000000000000000000000815260040161062f90610d2f565b60405180910390fd5b60007f000000000000000000000000000000000000000000000000000000000000000073ffffffffffffffffffffffffffffffffffffffff166370a08231306040518263ffffffff1660e01b81526004016106939190610b34565b602060405180830381865afa1580156106b0573d6000803e3d6000fd5b505050506040513d601f19601f820116820180604052508101906106d49190610e9f565b905061072182827f000000000000000000000000000000000000000000000000000000000000000073ffffffffffffffffffffffffffffffffffffffff166107a29092919063ffffffff16565b7f33f3dfe3a9fa76b24dccfdddcd960aabe6341398f61e0b841cb1874a9d129a178282604051610752929190610ecc565b60405180910390a15050565b60006020528060005260406000206000915054906101000a900460ff1681565b7f000000000000000000000000000000000000000000000000000000000000000081565b6108238363a9059cbb60e01b84846040516024016107c1929190610ecc565b604051602081830303815290604052907bffffffffffffffffffffffffffffffffffffffffffffffffffffffff19166020820180517bffffffffffffffffffffffffffffffffffffffffffffffffffffffff8381831617835250505050610828565b505050565b600061088a826040518060400160405280602081526020017f5361666545524332303a206c6f772d6c6576656c2063616c6c206661696c65648152508573ffffffffffffffffffffffffffffffffffffffff166108ef9092919063ffffffff16565b90506000815111156108ea57808060200190518101906108aa9190610f21565b6108e9576040517f08c379a00000000000000000000000000000000000000000000000000000000081526004016108e090610fc0565b60405180910390fd5b5b505050565b60606108fe8484600085610907565b90509392505050565b60608247101561094c576040517f08c379a000000000000000000000000000000000000000000000000000000000815260040161094390611052565b60405180910390fd5b61095585610a1b565b610994576040517f08c379a000000000000000000000000000000000000000000000000000000000815260040161098b906110be565b60405180910390fd5b6000808673ffffffffffffffffffffffffffffffffffffffff1685876040516109bd9190611158565b60006040518083038185875af1925050503d80600081146109fa576040519150601f19603f3d011682016040523d82523d6000602084013e6109ff565b606091505b5091509150610a0f828286610a2e565b92505050949350505050565b600080823b905060008111915050919050565b60608315610a3e57829050610a8e565b600083511115610a515782518084602001fd5b816040517f08c379a0000000000000000000000000000000000000000000000000000000008152600401610a8591906111c4565b60405180910390fd5b9392505050565b600080fd5b600073ffffffffffffffffffffffffffffffffffffffff82169050919050565b6000610ac582610a9a565b9050919050565b610ad581610aba565b8114610ae057600080fd5b50565b600081359050610af281610acc565b92915050565b600060208284031215610b0e57610b0d610a95565b5b6000610b1c84828501610ae3565b91505092915050565b610b2e81610aba565b82525050565b6000602082019050610b496000830184610b25565b92915050565b6000819050919050565b610b6281610b4f565b8114610b6d57600080fd5b50565b600081359050610b7f81610b59565b92915050565b6000819050919050565b610b9881610b85565b8114610ba357600080fd5b50565b600081359050610bb581610b8f565b92915050565b60008060008060808587031215610bd557610bd4610a95565b5b6000610be387828801610ae3565b9450506020610bf487828801610ae3565b9350506040610c0587828801610b70565b9250506060610c1687828801610ba6565b91505092959194509250565b60008115159050919050565b610c3781610c22565b82525050565b6000602082019050610c526000830184610c2e565b92915050565b6000819050919050565b6000610c7d610c78610c7384610a9a565b610c58565b610a9a565b9050919050565b6000610c8f82610c62565b9050919050565b6000610ca182610c84565b9050919050565b610cb181610c96565b82525050565b6000602082019050610ccc6000830184610ca8565b92915050565b600082825260208201905092915050565b7f596f7520617265206e6f7420746865206d616e61676572000000000000000000600082015250565b6000610d19601783610cd2565b9150610d2482610ce3565b602082019050919050565b60006020820190508181036000830152610d4881610d0c565b9050919050565b7f4e6f7420612077686974656c6973746564206e6f6e70726f6669740000000000600082015250565b6000610d85601b83610cd2565b9150610d9082610d4f565b602082019050919050565b60006020820190508181036000830152610db481610d78565b9050919050565b7f416d6f756e74206d7573742062652067726561746572207468616e2030000000600082015250565b6000610df1601d83610cd2565b9150610dfc82610dbb565b602082019050919050565b60006020820190508181036000830152610e2081610de4565b9050919050565b610e3081610b4f565b82525050565b610e3f81610b85565b82525050565b6000608082019050610e5a6000830187610e27565b610e676020830186610b25565b610e746040830185610b25565b610e816060830184610e36565b95945050505050565b600081519050610e9981610b8f565b92915050565b600060208284031215610eb557610eb4610a95565b5b6000610ec384828501610e8a565b91505092915050565b6000604082019050610ee16000830185610b25565b610eee6020830184610e36565b9392505050565b610efe81610c22565b8114610f0957600080fd5b50565b600081519050610f1b81610ef5565b92915050565b600060208284031215610f3757610f36610a95565b5b6000610f4584828501610f0c565b91505092915050565b7f5361666545524332303a204552433230206f7065726174696f6e20646964206e60008201527f6f74207375636365656400000000000000000000000000000000000000000000602082015250565b6000610faa602a83610cd2565b9150610fb582610f4e565b604082019050919050565b60006020820190508181036000830152610fd981610f9d565b9050919050565b7f416464726573733a20696e73756666696369656e742062616c616e636520666f60008201527f722063616c6c0000000000000000000000000000000000000000000000000000602082015250565b600061103c602683610cd2565b915061104782610fe0565b604082019050919050565b6000602082019050818103600083015261106b8161102f565b9050919050565b7f416464726573733a2063616c6c20746f206e6f6e2d636f6e7472616374000000600082015250565b60006110a8601d83610cd2565b91506110b382611072565b602082019050919050565b600060208201905081810360008301526110d78161109b565b9050919050565b600081519050919050565b600081905092915050565b60005b838110156111125780820151818401526020810190506110f7565b83811115611121576000848401525b50505050565b6000611132826110de565b61113c81856110e9565b935061114c8185602086016110f4565b80840191505092915050565b60006111648284611127565b915081905092915050565b600081519050919050565b6000601f19601f8301169050919050565b60006111968261116f565b6111a08185610cd2565b93506111b08185602086016110f4565b6111b98161117a565b840191505092915050565b600060208201905081810360008301526111de818461118b565b90509291505056fea2646970667358221220404d5f0784f99eb6a930e522cd78af9a314a0eb5fdb25d1f9818eb3909e935bf64736f6c634300080e0033a2646970667358221220c67924ee3d4bc37690707fa7c5287ec9d0ab8fe9c128eb6cad21f834afd8f21f64736f6c634300080e0033",
  "linkReferences": {},
  "deployedLinkReferences": {}
}